10001153735653103220101OFTALMOCENTERSC                     PAGO DE NOMINA      05                                        C00
2100100000000000015542801701200000000000003095241                    
3000100000000000047956001000000000904100074863103220101                              Rosas Perezvargas Leticia                              NOMINA                                                          0000000000000
3000100000000000050424001000000000904026575013103220101                              Gonzalez Galeana Martha Elena                          NOMINA                                                          0000000000000
3000100000000000029748001000000000904477863963103220101                              Cipres Blanquel  Nancy Shaila                          NOMINA                                                          0000000000000
3000100000000000033780001000000000904474447543103220101                              Chavez Diaz Guadalupe Itzel                            NOMINA                                                          0000000000000
3000100000000000017988001000000000903622623983103220101                              Montiel Polis Sara                                     NOMINA                                                          0000000000000
3000100000000000028450001000000000902575029873103220101                              Ayala Garcia Guillermo Leonel                          NOMINA                                                          0000000000000
3000100000000000038090001000000000902000780463103220101                              Campos Moreno  Ana Karina                              NOMINA                                                          0000000000000
3000100000000000038094001000000000902736510543103220101                              Jaramillo  Benitez Reyna                               NOMINA                                                          0000000000000
3000100000000000035104001000000000902792153533103220101                              Ortiz Flores Biviana                                   NOMINA                                                          0000000000000
3000100000000000033776001000000000903559732033103220101                              Soto Peregrino  Hector Ulises                          NOMINA                                                          0000000000000
3000100000000000035940001000000000903689973063103220101                              Saavedra Lopez Dulce Angelica                          NOMINA                                                          0000000000000
3000100000000000033778001000000000904180849273103220101                              Jaimes Cuenca Jeny Jazaret                             NOMINA                                                          0000000000000
3000100000000000026202001000000000904252463123103220101                              Palma Lopez Lilia                                      NOMINA                                                          0000000000000
3000100000000000033780001000000000904321250593103220101                              Sotelo Delgado Karen Zulema                            NOMINA                                                          0000000000000
3000100000000000043668001000000000904537833233103220101                              Carbajal Sampayo Nataly                                NOMINA                                                          0000000000000
3000100000000000042480001000000000904639032033103220101                              Morales Torres Angelica                                NOMINA                                                          0000000000000
4001000016000000000000155428000001000000000000155428