10001153735652802200002OFTALMOCENTERSC                     PAGO DE NOMINA      05                                        C00
2100100000000000030394001701200000000000003095241                    
3000100000000000010057901000000000904028123022802200001                              Torres Chavez Genoveva Lilia                           NOMINA                                                          0000000000000
3000100000000000010670001000000000903602320682802200001                              Jaimes Lopez Iracelg Karina                            NOMINA                                                          0000000000000
3000100000000000003028101000000000904155448892802200001                              Vazquez Gomez Edith                                    NOMINA                                                          0000000000000
3000100000000000012105801000000000904026575012802200001                              Gonzalez Galeana Martha Elena                          NOMINA                                                          0000000000000
3000100000000000000010001000000000901026575012802200001                              Luis Javier Galindo Guadarrama                         NOMINA                                                          0000000000000
3000100000000000000208801000000000901026575012802200001                              Wendy Calleja                                          NOMINA                                                          0000000000000
3000100000000000000028901000000000901026575012802200001                              Geovanny Granados                                      NOMINA                                                          0000000000000
4001000007000000000000303940000001000000000000303940