10001153735653004220005OFTALMOCENTERSC                     PAGO DE NOMINA      05                                        C00
2100100000000000555480001701200000000000003095241                    
3000100000000000021644001000000000904100074863004220005                              Rosas Perezvargas Leticia                              NOMINA                                                          0000000000000
3000100000000000050524001000000000904026575013004220005                              Gonzalez Galeana Martha Elena                          NOMINA                                                          0000000000000
3000100000000000036006001000000000904477863963004220005                              Cipres Blanquel  Nancy Shaila                          NOMINA                                                          0000000000000
3000100000000000033840001000000000904474447543004220005                              Chavez Diaz Guadalupe Itzel                            NOMINA                                                          0000000000000
3000100000000000018568001000000000903622623983004220005                              Montiel Polis Sara                                     NOMINA                                                          0000000000000
3000100000000000030004001000000000902575029873004220005                              Ayala Garcia Guillermo Leonel                          NOMINA                                                          0000000000000
3000100000000000038162001000000000902000780463004220005                              Campos Moreno  Ana Karina                              NOMINA                                                          0000000000000
3000100000000000041706001000000000902736510543004220005                              Jaramillo  Benitez Reyna                               NOMINA                                                          0000000000000
3000100000000000036172001000000000902792153533004220005                              Ortiz Flores Biviana                                   NOMINA                                                          0000000000000
3000100000000000033682001000000000903559732033004220005                              Soto Peregrino  Hector Ulises                          NOMINA                                                          0000000000000
3000100000000000035894001000000000903689973063004220005                              Saavedra Lopez Dulce Angelica                          NOMINA                                                          0000000000000
3000100000000000033528001000000000904180849273004220005                              Jaimes Cuenca Jeny Jazaret                             NOMINA                                                          0000000000000
3000100000000000025796001000000000904252463123004220005                              Palma Lopez Lilia                                      NOMINA                                                          0000000000000
3000100000000000033842001000000000904321250593004220005                              Sotelo Delgado Karen Zulema                            NOMINA                                                          0000000000000
3000100000000000043550001000000000904537833233004220005                              Carbajal Sampayo Nataly                                NOMINA                                                          0000000000000
3000100000000000042562001000000000904639032033004220005                              Morales Torres Angelica                                NOMINA                                                          0000000000000
4001000016000000000005554800000001000000000005554800